:020000040002F8
:10600000186C0020496202005162020053620200D3
:10601000556202005762020059620200000000004F
:106020000000000000000000000000005B620200B1
:106030005D620200000000005F6202006162020017
:106040006362020063620200636202006362020034
:106050006362020063620200F5660200636202008E
:106060006362020071720200C17202006362020088
:106070006362020063620200636202006362020004
:10608000636202004D680200496802006362020018
:10609000616B020063620200656B020063620200D2
:1060A00063620200636202006362020063620200D4
:1060B0006362020063620200000000000000000052
:1060C00063620200636202006362020063620200B4
:1060D000636202006362020063620200000000006B
:1060E00000000000000000000000000000000000B0
:1060F00000000000000000000000000000000000A0
:10610000000000000000000000000000000000008F
:10611000000000000000000000000000000000007F
:10612000000000000000000000000000000000006F
:10613000000000000000000000000000000000005F
:10614000000000000000000000000000000000004F
:10615000000000000000000000000000000000003F
:10616000000000000000000000000000000000002F
:10617000000000000000000000000000000000001F
:10618000000000000000000000000000000000000F
:1061900000000000000000000000000000000000FF
:1061A00000000000000000000000000000000000EF
:1061B00000000000000000000000000000000000DF
:1061C00000000000000000000000000000000000CF
:1061D00000000000000000000000000000000000BF
:1061E00000000000000000000000000000000000AF
:1061F000000000000000000000000000000000009F
:10620000DFF80CD000F0F4F8004800473D410300EF
:10621000186C002000B583B002900091019244F206
:10622000010071466A4603F065FD03B000BD000041
:1062300040BA704740BA704740BA704740BA70479A
:1062400040BA704740BA7047064880470648004742
:10625000FEE7FEE7FEE7FEE7FEE7FEE7FEE7FEE716
:10626000FEE7FEE7556F0200016202002DE9F05FD4
:106270000546002092469B468846064681464024B5
:106280001BE0284641464746224600F0A1F8534607
:106290005A46C01A914110D311461846224600F0C2
:1062A00088F82D1A67EB01084F462246012000218D
:1062B00000F07FF817EB00094E41201EA4F1010405
:1062C000DFDC484631462A464346BDE8F09F2DE9CB
:1062D000F0410024061B254671F1000605DA012471
:1062E0000027D0EB070067EB0101161E73F10006D3
:1062F00005DA0027D2EB0702012567EB0303FFF75E
:10630000B5FF86460E4617469C46AC4204D0002593
:10631000D0EB050E65EB010624B10020D2EB00079F
:1063200060EB030C704631463A466346BDE8F081A7
:1063300040EA01039B0703D009E008C9121F08C007
:10634000042AFAD203E011F8013B00F8013B521E87
:10635000F9D27047D2B201E000F8012B491EFBD2FE
:1063600070470022F6E710B513460A460446194660
:10637000FFF7F0FF204610BD421C10F8011B00295A
:10638000FBD1801A704730B504460020034600E078
:106390005B1C934203D2E05CCD5C401BF8D030BD67
:1063A000034611F8012B00F8012B002AF9D11846F9
:1063B0007047202A04DB203A00FA02F100207047DF
:1063C0009140C2F1200320FA03F319439040704733
:1063D000202A04DB203A21FA02F00021704721FA3A
:1063E00002F3D040C2F120029140084319467047A1
:1063F000064C074D06E0E06840F0010394E8070012
:1064000098471034AC42F6D3FFF7FEFEB00A040002
:10641000D00A040070B58C1810F8015B15F0070362
:1064200001D110F8013B2A1106D110F8012B03E02D
:1064300010F8016B01F8016B5B1EF9D12B0705D435
:106440000023521E0DD401F8013BFAE710F8013B7E
:10645000CB1A921C03E013F8015B01F8015B521E9A
:10646000F9D5A142D8D3002070BD00002DE9F04736
:10647000224D8246224E2888224F9AB098461446D2
:10648000894640040BD53068042808DB3B681EA011
:1064900000904FF4837224A104200DF0D7FD18A9B9
:1064A0000020C0F10503225C401CCA540628F8DB1A
:1064B0000A464346494602A806F026FE28884004BC
:1064C0000DD5306804280ADB3B6802A919A0CDE984
:1064D00000014FF4867214A104200DF0B7FD10A83E
:1064E00000903622002302A800F000FC102210A920
:1064F0005046FFF71DFF1AB0BDE8F087142F0020AB
:10650000182F002004150140205374617274205329
:1065100048413235362043616C63756C6174696F34
:106520006E20200A000000007368613235362E6349
:1065300000000000207368613235365F696E203AD2
:1065400020257320200A000070B594B0054602A8EB
:1065500012900E460AA81446134613900AAA02A9DE
:10656000304614F0D4FA6188491C09B2CDE9001410
:1065700098B1002012A9002351F82020284604F1E8
:10658000440100F00EF82078400041B2284618F08F
:10659000A6F920B1002014B070BD0120EAE7012067
:1065A000F9E72DE9FF4FB5B00AA8DDE942841D46A1
:1065B00094F9007036993A462E9018F0F9FA369808
:1065C0003A4600EB87011AA88A46064618F0F0FA08
:1065D000CDE9005412AB02AA31462E9800F085FF97
:1065E000A8F1020005B222E02946379818F00AFB0C
:1065F00000287AD0002212AE02AB06EB421B03EB5E
:106600004218C2F1010206EB421903EB42165B4647
:10661000424649463046009400F0DBFE4B46324687
:1066200059464046009400F06FFE6D1E2DB2002DBD
:10663000DADC0021379818F0E5FA002857D000225C
:1066400012A901EB421302AE06EB4218C2F101029D
:1066500001EB421506EB4216994642462946304662
:10666000009400F0B6FE231D02AA009722A82E99DE
:1066700018F0F8F922A92A462346084618F0DEF950
:1066800022A923460846369A18F0D8F922A93B4693
:10669000221D084618F04BF922A952462346084607
:1066A00018F0CCF922A932462346084618F0C6F95C
:1066B0003246494640462B46009400F025FE2346CC
:1066C00022AA12A902A804F0E3F83A4602A93598D2
:1066D00018F06EFA35983A4600EB870012A918F0C8
:1066E00067FA39B0BDE8F08FFFE7012283E70122A6
:1066F000A6E700002DE9F043002589B0DFF84091BE
:10670000A8464FF4807601242F460695304610F0B7
:1067100061FA38B1D9F80403204203D0304610F0B2
:106720004FFA2543361D64007F1CB6B2082FEDD307
:106730004FF4BE74204610F04DFA48B1204610F0D8
:106740003FFA45F0004506AA0121002010F024FA86
:106750003C4E15F0FF0F15D0012700242F420DD01D
:1067600009EB8401D1F81005D1F81015C0F304200D
:1067700056F82420C1F3014102B190477F00641C08
:10678000082CEBD3002D2DDA4FF0FF30CDF8088028
:106790004AE004A9204610F05FF9002822D04FEA11
:1067A0009518204605F024FE56F820501DB1B8F18A
:1067B000030F03D006E0B8F1030F13D102A920465E
:1067C00010F052F94FF0A04000EB8400D0F8000721
:1067D00006A9C0F30149204610F03EF928B1B9F1ED
:1067E000020F05D009B0BDE8F083B9F1030FF9D16C
:1067F000B8F1030F07D1B9F1020F1FD002212046D3
:1068000010F0B9F9012715B141462046A847002FDD
:10681000E8D06A460121002010F0BEF906990098E0
:106820008842DFD006900298049096F844500027E2
:1068300068B225F0C004401CABD1D3E70321DEE7EA
:10684000006000409856002004F06CBC70B5114CFC
:10685000D4F8401110480025012901D0017921B157
:10686000C4F84051057116F0A1FED4F84401012886
:1068700003D1C4F8445110F01FFFD4F804010128DB
:1068800001D110F0CDFEC4F84851C4F84C51C4F801
:10689000005170BD001001405C31002008B501229C
:1068A0006946002000F008F8012802D04FF0FF30C0
:1068B00008BD9DF8000008BDAFF300802DE9F0474A
:1068C0001B4D0746164628780C4608B900F044FED2
:1068D00007EB470005EBC007A046D7E91595002454
:1068E00048374D4511D9B868441BB44200D33446EB
:1068F0007868224641194046FFF71AFDB868361BF2
:106900002544A044A84200D10025A9EB0500B042CF
:1069100000D206463EB17868324641194046FFF73C
:1069200007FD3444354404B13D612046BDE8F0879D
:106930008455002070B5074B0646144618780D465E
:1069400008B900F009FE224629463046BDE87040ED
:1069500000F002B88455002070B50E46144900EBD3
:10696000400001EBC0051446E86A183520B1012843
:106970000FD0022805D113E0284600F021FEA042E6
:1069800001D2002411E022463146284600F03EFFA5
:106990000BE0284600F014FEA042F4D20446F2E7D1
:1069A0003146284600F005FF0446204670BD000031
:1069B000845500200FB408B504A900916A460399D4
:1069C00000F003F801B05DF814FB2DE9F04198B038
:1069D000064607A8029040200025CDE90305CDE931
:1069E000055690460C4614F8011B002973D0252942
:1069F00008D002A800F0BEFE05980028F3DA18B00F
:106A0000BDE8F08100200122217823291ED02B2906
:106A100019D02D2902D0302908D102E040F0010020
:106A200001E040F00200641C002AEDD10022217830
:106A3000A1F130030A2B0CD202EB820201EB4202DD
:106A4000303A641CF3E740F00400ECE740F0080043
:106A5000E9E70023CFB22E2F0BD114F8011FA1F1CB
:106A600030070A2F05D203EB830301EB4303303BCE
:106A7000F3E76C290DD068290BD0702954D00BDCBA
:106A8000252916D0582931D063290CD0642913D177
:106A900014E014F8011BECE7732934D075291BD0DE
:106AA000782909D122E0D8F80000011DC8F80010AB
:106AB000017802A800F05EFE641C9DE7D8F8001083
:106AC0000F1DC8F800700968CDE900200A2202A84D
:106AD00000F082FDF0E733E0D8F800100F1DC8F891
:106AE00000700968CDE900200A2208E0D8F80010FB
:106AF0000F1DC8F800700968CDE90020102202A817
:106B000000F0CEFDD8E7D8F80000011DC8F800104D
:106B1000076817F8011B0029CED002A800F02AFE52
:106B200005980028F5DAC7E7D8F80000011DC8F875
:106B3000001001680820CDE9000503461022DEE7B9
:106B4000059800287FF75BAF049820B1024607A99B
:106B50003046FFF7EFFEDDE90410084405904EE7EC
:106B600016F080BB10F0F4BEF0B5394C394987B04F
:106B70004FF4D47222800B784D7843EA05138D7858
:106B8000C97843EA451343EA8111A170A4F11001C9
:106B9000324D41F8130F304803684B6080880881FC
:106BA0002888400451D52E4E306804284DDB2D4FE7
:106BB0003B682DA0CDE900024FF4B2722EA1042053
:106BC0000DF044FA288840043FD5306804283CDBA7
:106BD0003B68A1782AA0CDE9000140F2651226A108
:106BE00004200DF033FA288840042ED5306804289C
:106BF0002BDB3B68607A0DF10C0E94F80CC0E27A46
:106C0000A17A8EE80710227AE17921A08DE80700A9
:106C10004FF4B37218A104200DF018FA288840042C
:106C200013D53068042810DB3B68A279607921799C
:106C3000E478CDE9021023A0CDE90004049240F2EB
:106C400067120DA104200DF001FA07B0F0BD00009D
:106C500090310020A02D00205CF80300142F0020AC
:106C6000182F002004150140636964203A20307811
:106C700025303478200A00006D61696E2E630000B3
:106C8000706964203A20307825303278200A00007C
:106C90006D6163203A2030782530327820307825B5
:106CA00030327820307825303278203078253032F4
:106CB0007820307825303278203078253032780AC4
:106CC0000000000070726F64756374203A203078A1
:106CD00025303278203078253032782030782530D1
:106CE000327820307825303278200A002DE9F04FB4
:106CF000ADF51F7D06468E4890908E488F908E4849
:106D00008E908E488D908E488C908E488B908E48B9
:106D10008A908E48144689901D464FF480728C49A3
:106D200040A8FFF705FB4022002320462946FFF735
:106D3000CEFA3821511A73F1000101DB802000E006
:106D40004020D2EB0000001982900DF03BFA0200C7
:106D50004FF000007ED00BE000EB917121F00301B9
:106D6000411A494200EB4101335C1144401CCB7095
:106D7000C117031B71EB0503EEDBC31700EB937325
:106D800023F00303C31A5B4200EB43031344802147
:106D9000D97000210AE0C31700EB937323F00303BB
:106DA000C31A5B4200EB43031344D970829B401C1F
:106DB0009842F0DB8298610F1044E40041EAC5017B
:106DC00040E902149D9081E000206D4652F82010A9
:106DD00045F82010401C1028F8DB102005EB80013E
:106DE00051F8083C4FEA734484EAF34484EA93245C
:106DF00051F83C3C4FEAF31686EAB34686EAD303E1
:106E0000234451F81C4C51F8401C2144194445F8C6
:106E10002010401C4028E1DBDDE98DB4DDE98A96D5
:106E2000DDE98F03DDF824E28C9900274FEAB115E4
:106E300085EAF12585EA716801EA060529EA010C6F
:106E400085EA0C0508EB050C40AD55F8278008EBEA
:106E50000E0500E068E0AC445DF82750CE460CEB30
:106E6000050A4FEAB30585EA733585EAB35C80EA23
:106E70000405B14600EA04080E461D400BEB0A016A
:106E8000A34685EA08050446AC4418467F1C0AEB75
:106E90000C03402FCADB909D40322B4490938F9B74
:106EA00018448F908E9820448E908D9858448D90E1
:106EB0008C9808448C908B98899930448B908A9850
:106EC00048448A9001EB0E0089909D988242FFF41D
:106ED0007BAF8298101A08F07BFE909894908F9860
:106EE00095908E9896908D9897908C9898908B9876
:106EF00099908A989A908998002194AB9B9053F826
:106F000021400020C50024FA05F2C0F1030505EB7D
:106F10008106A89D401CC0B2AA550428F2D3491C82
:106F2000C9B20829EBD3A8980DF51F7DBDE8F08FF5
:106F300067E6096A85AE67BB72F36E3C3AF54FA50A
:106F40007F520E518C68059BABD9831F19CDE05B36
:106F500064F90300F0B5B5480023021D0178101D47
:106F600001254FF0805406290BD11678360708D139
:106F70000678C6F30316032E06D0042E04D0052E81
:106F800002D0062907D00EE0B4F82463A84FC6F358
:106F900004263E6002E01678360704D10678C6F370
:106FA0000316032E02D0062904D00FE0A24FA14EF3
:106FB0007E670EE01678360708D10678C6F303160A
:106FC000032E06D0042E04D0052E02D0062907D0A9
:106FD0000EE0D4F84462994FC6F342363E6002E0B8
:106FE0001678360704D10678C6F30316032E02D0AE
:106FF000062906D011E0924E376827F08077376077
:107000000EE01678360708D10678C6F30316032E6D
:1070100006D0042E04D0052E02D006290AD011E095
:107020004FF08046C6F80C31C6F81031834E361F3B
:10703000336002E01678360704D10678C6F30316EB
:10704000032E02D0062905D00CE07C4F03266437BE
:107050003E600AE01678360704D10678C6F30316B8
:10706000032E02D006290DD014E0764F05263E608F
:10707000744E78363560734E083633603F263F1DB8
:107080003E6002E01678360704D10678C6F3031690
:10709000052E02D0062957D062E06B4E36686B4F42
:1070A0003E60694E361D36683F1D3E60664E0836AE
:1070B00036683F1D3E60644E0C3636683F1D3E60AC
:1070C000614E103636683F1D3E605F4E143636689E
:1070D0003F1D3E605C4E183636685C4F20373E6080
:1070E000594E1C3636683F1D3E60574E2036366876
:1070F0003F1D3E60544E243636683F1D3E60524E62
:10710000283636683F1D3E604F4E2C3636683F1D90
:107110003E604D4E303636684C4F40373E604A4EEA
:10712000343636683F1D3E60474E383636683F1D60
:107130003E60454E3C3636683F1D3E60424E40360E
:1071400036683F1D3E6002E01678360708D10678A3
:10715000C6F30316032E06D0042E04D0052E02D04B
:10716000062907D019E0D4F85812394A01F04F0126
:10717000116002E0117809070FD10078C0F3031005
:10718000032803D0042801D0052806D1314801681E
:10719000C90702D06FF001010160D4F83001062860
:1071A00008D1D4F83401062804D12B48016841F4F1
:1071B0008061016022487438016841F47001016007
:1071C000BFF34F8FBFF36F8F4FF01021D1F8000244
:1071D000002803DBD1F80402002822DA1F4A1560D8
:1071E0001F480468002CFCD01524C1F80042056833
:1071F000002DFCD0C1F8044201680029FCD01360C6
:1072000001680029FCD0BFF34F8F0D48F0380168AA
:10721000144A01F4E06111430160BFF34F8F00BFD6
:10722000FDE7124910480860F0BD0000E00F00F0D3
:10723000403501400DF0ADBA00C007403C050040AC
:10724000FCED00E0105600400404001020C5004092
:10725000E40E0040000400403C17004004E50140FB
:1072600000E401400400FA050090D00374310020CE
:107270002DE9F047104E042700244FF4A0784FF476
:10728000803900BF08EB840509FA04F0715961B137
:10729000D6F80413014208D02946304610F0D1FB3D
:1072A0000648D0E9002128469047641CE4B2BC425D
:1072B000E8D3BDE8F0870000009000403C56002075
:1072C00010B5104C606898B1806810B978460DF020
:1072D0008DF90120E070616808698968884700209D
:1072E000E070A07800280CD0BDE8104007F0F0B99D
:1072F000607810B978460DF079F9BDE8104014F0C7
:10730000D9BC10BDDC3000202DE9F04389B0914696
:10731000109C98460E46074694F90050024649468E
:1073200001A8231D009517F09DFB01A922460846E0
:1073300017F094FB3946234601AA084617F07EFB56
:107340004946234601AA084617F078FB4146231D0B
:1073500032460846009517F085FB2246414601A8B3
:1073600017F07CFB01A9231D3A460846009517F04B
:1073700079FB01A9231D4A460846009517F072FBC8
:107380004946231D3A460846009517F06BFB3146E7
:1073900023464A46084617F051FB231D01AA3946E9
:1073A0004846009517F05EFB414623464A4608468C
:1073B00017F044FB4146231D32460846009517F05E
:1073C00051FB2A4601A9484617F0F2FB09B0BDE877
:1073D000F0832DE9F04399B01646209C99460F465C
:1073E000804694F900500246314609A8231D0095B5
:1073F00017F038FB09A92246084617F02FFB414633
:10740000234609AA084617F019FB3146234609AA64
:10741000084617F013FB231D3A46494609A8009574
:1074200017F06DFA4946231D3A460846009517F0B5
:1074300019FB231D4246314601A8009517F012FBA7
:107440003946234601AA084617F0F8FA231D3246AA
:10745000414601A8009517F052FA224649463046A7
:1074600017F0FCFA3146231D01AA0846009517F0D3
:10747000F9FA231D3246414611A8009517F0F2FA99
:107480004946234611AA084617F0D8FA4946231D53
:107490003A460846009517F0E5FA224609A911A8D0
:1074A00017F0DCFA11A9231D01AA0846009517F070
:1074B000D9FA231D424611A901A8009517F0D2FA66
:1074C00001A9234609AA084617F0B8FA3A46231D2F
:1074D00001A91046009517F0C5FA2A4611A94046A1
:1074E00017F066FB19B0BDE8F0832DE9F04389B0D1
:1074F0008946DDE910141E4694F90050174680466F
:1075000021B12A46684617F053FB05E02946684634
:1075100017F098F9012000902A464146384617F0A6
:1075200047FB2A464946304617F042FB23466A4647
:107530004946404603F0ACF9D4F8A45023466A46C5
:1075400049464046A84723466A463146384603F036
:107550009FF909B0BDE8F08310B5124C02202061FC
:10756000606111A0A061A4F59060E0614FF48060BB
:1075700020620020A06260620BA1A164E062A4F11D
:107580008001E1648021A065C4E91410E06509A1CF
:10759000E01DFEF705FF08A12046FEF701FF2020B1
:1075A000A07110BD845500205465726D696E616CC8
:1075B0000000000052545400534547474552000014
:1075C0000269C1688A4203D88068401A104400E00A
:1075D000501A401E704700002DE9FC5F0E008146E6
:1075E000DDE90C47C6F1000098469346824600D478
:1075F0000846012503E000BF90FBFBF06D1C5845D9
:10760000FADAA84500D9454624B1002E01DB7807F7
:1076100000D5641EB80702D5B8F1000F0FD0F807E7
:107620000DD164B1A5420AD220214846641E00F063
:10763000A1F8D9F80C000028F3DABDE8FC9FD9F8CE
:107640000C000028F9DB002E02DA56462D2102E05C
:10765000780707D52B21484600F08CF8D9F80C00A4
:107660000028EADB07F0030002280FD1B8F1000F71
:107670000CD15CB1A54209D230214846641E00F00D
:1076800079F8D9F80C000028F3DAD6E7CDE90047FD
:1076900043465A463146484600F002F8CDE700001E
:1076A0002DE9F84F8246DDE90A4B012698469146BE
:1076B0000D460846374602E0B0FBF9F07F1C48450E
:1076C000FAD2B84500D947465FEACB7017D1B4B1BA
:1076D0005FEA8B7002D5B8F1000F02D02020009035
:1076E0000BE03020FBE75046641E009900F042F8A2
:1076F000DAF80C00002838DB0CB1A742F3D3DAF833
:107700000C00002831DB00BFB8F1010F02D9A8F14D
:10771000010803E0B5FBF6F0484502D306FB09F685
:10772000F2E7DFF84C8000BFB5FBF6F000FB165522
:1077300018F80010504600F01DF8DAF80C00002888
:1077400003DBB6FBF9F6002EEED15FEACB700CD06E
:10775000002C0AD0A74208D220215046641E00F017
:1077600009F8DAF80C000028F2DABDE8F88F00001A
:10777000D1FE030010B50446D4E90130421C934207
:1077800005D323681954A260E068401CE060D4E986
:107790000102824209D121682069FFF7CBF8A16874
:1077A000884203D04FF0FF30E06010BD0020A060A1
:1077B00010BD2DE9F047C4681746894606464FF0CC
:1077C00000083069A04201D9051B02E0B168201A07
:1077D0000D1AB0686D1E001BA84200D80546BD42B8
:1077E00000D33D4670682A4620444946FEF7A0FD76
:1077F000B0687F1B2C44A844A944A04200D10024B7
:10780000F460002FDDD14046BDE8F0872DE9F0415E
:1078100004468846D4E90207C51BE168606816463D
:107820000844B54206D94146FEF782FDB819E0602A
:10783000BDE8F0812A464146FEF77AFD761B08EB4B
:10784000050132466068FEF773FDE660F0E7002848
:1078500009DB00F01F02012191404009800000F186
:10786000E020C0F880127047002809DB00F01F02FA
:10787000012191404009800000F1E020C0F8801211
:107880007047002809DB00F01F02012191404009E8
:10789000800000F1E020C0F800117047002809DBEB
:1078A00000F01F02012191404009800000F1E0201A
:1078B000C0F800117047002804DB00F1E02090F8C8
:1078C000000405E000F00F0000F1E02090F8140D36
:1078D00040097047002809DB00F01F020121914098
:1078E0004009800000F1E020C0F80012704749070D
:1078F000090E002804DB00F1E02080F80014704736
:1079000000F00F0000F1E02080F8141D704702E045
:1079100008C8121F08C1002AFAD17047704700201A
:1079200001E001C1121F002AFBD17047012120286C
:1079300003DA81400548014003E0402802DA20389C
:10794000814009B10120704700207047FC06FFBD4F
:107950000121202803DA81400548014003E0402846
:1079600002DA2038814009B10120704700207047B9
:10797000FC06FFBD082806D20121814011F0EC0F62
:1079800001D001207047002070470620704700009A
:1079900038B50446002084F83000E06F4FF4FA72E6
:1079A000410CC003801841F1000152000023FEF792
:1079B0005DFCC4E90E0104F130000EF0D5F9002899
:1079C00010D00948008840040CD5084800680128F8
:1079D00008DB0748036807A00090F2220DA10120F0
:1079E0000CF034FB38BD0000142F0020182F0020AD
:1079F000041501404661696C656420746F207374DE
:107A00006172742064656C61792074696D65722E91
:107A10000A0000006170705F6C6576656C2E630013
:107A200010B5006800890DF0FBF9002804D07846F5
:107A3000BDE810400CF0DABD10BD10B5044600687A
:107A40000C3015F0A5FC226802F13C00916CCA686C
:107A5000BDE8104002211047016801F13C00896C2B
:107A60008968084700680CF06DB910B504460068D5
:107A700086B0A16841620FF067F90146102268469E
:107A8000FEF756FCE088ADF810004FF4C861042002
:107A90000CF0BCFC1222694641F627000CF038FCC1
:107AA0000CF0C6FC06B010BD0CF0E6BC0068816CA2
:107AB0003C304968084770B50168044601F13C054F
:107AC00008460CF03FF9E868A289A16803682846D7
:107AD000BDE87040184770B504460289006800236D
:107AE000032100890DF004FB050002D178460CF05B
:107AF0007DFD228928466168FEF71AFC2068294628
:107B000000890DF051FB10B178460CF06FFD206834
:107B1000BDE870400CF016B91CB5044630300EF0CC
:107B2000DBF80020A067B4F87610A4F87410ADF864
:107B30000010B4F87610ADF80210019069462046A6
:107B400008F048FBA26EB4F97410204690471CBDA3
:107B50002DE9FC47054690F88000022806D0D5F8AC
:107B60008440002C00DA64421CB105E0B5F9844081
:107B7000F7E778460CF03AFDA86F4FF47A71A0FB56
:107B8000010122460023FEF771FB0E460446DFF892
:107B9000D8904FF47A71401A76F10000B9F80000DD
:107BA000324FDFF8CC804FEA404011D200280CDA87
:107BB0003868042809DBD8F800302EA0009040F285
:107BC000111235A104200CF041FA212000211AE005
:107BD00000280CDA3868042809DBD8F8003031A016
:107BE000009040F217122CA104200CF02FFAF103A0
:107BF000364AE00341EA5441801841F10001520045
:107C00000023FEF733FBC5E90E01B9F800004C462E
:107C100040040ED5386804280BDBD8F80030A96B77
:107C20002BA0CDE9000140F21B121BA104200CF097
:107C30000DFA012085F8300005F130000EF094F8BF
:107C400000280FD0208840040CD53868012809DBB3
:107C5000D8F8003026A000904FF491720EA10120B8
:107C60000CF0F4F9BDE8FC87142F0020182F002039
:107C70000415014053656C656374696E67206D6916
:107C80006E696D756D207469636B20696E746572C1
:107C900076616C0A000000006170705F6C6576654B
:107CA0006C2E630053656C656374696E6720696E42
:107CB00074657276616C20666F72206F6E652073DA
:107CC000746570206368616E67650A0020A1070013
:107CD00074696D656F75745F7274635F7469636BEB
:107CE000733A202564207469636B730A00000000F6
:107CF0004661696C656420746F20737461727420CE
:107D00007472616E736974696F6E2074696D6572E7
:107D10000A0000002DE9FC41044690F88010303044
:107D2000054602291BD0B4F97600B4F988107434E2
:107D3000461A28460EF014F84FF47A73A0FB037C21
:107D400001FB03C1002200FB0210410441EAD730CD
:107D50006168704390FBF1F0A18A084420E00DF0C7
:107D6000FFFF4FF47A760246A2FB060701FB06717D
:107D7000002302FB0312C10B41EA4241D60BB4F9C6
:107D80008420A1FB0207D31706FB027201FB03212B
:107D9000A26F00237434FEF79AFAB4F91210401857
:107DA00024F874092046A26EB4F974109047124862
:107DB000008840041DD511480068052819DB2846B5
:107DC0000DF0CEFF4FF47A72A0FB024501FB025189
:107DD000002300FB0310410441EAD43008490B683A
:107DE00008A1CDE9001040F239120BA105200CF0DA
:107DF0002DF9BDE8FC810000142F0020182F002071
:107E000004150140456C61707365642074696D658B
:107E10003A2025640A0000006170705F6C65766529
:107E20006C2E63000846002113F08CBC10B501F0E5
:107E300099F801F021F8BDE8104000F06FB800009B
:107E40000148007870470000283000207F2805D8BE
:107E5000012803D0024908700020704707207047AE
:107E60002830002011B118B1052070470E2070474E
:107E70000248008808800020704700002C30002055
:107E8000F0B519B112B118B10520F0BD0E20F0BD4A
:107E9000148800230F4E13801588A54201D30920B2
:107EA000F0BD03EB830707EBC30706EB870797F8E3
:107EB00030C05FEACC7C07D0BF89874204D121F86B
:107EC000153015886D1C15805B1C032BE4D3002036
:107ED000F0BD00002047002011B118B10520704707
:107EE0000E2070470248807808700020704700001C
:107EF0002C30002011B118B1052070470E207047BA
:107F00000248C07808700020704700002C30002024
:107F100010B505F0E5FEA0F5805010BD074910B57D
:107F20000120C870064807F007FC002805D0034868
:107F3000BDE81040243007F0BFBB10BD2830002042
:107F4000C847002070B586B0204D00240620AC70D4
:107F5000039003AB6A4601211D4807F045FB10B1B1
:107F6000002006B070BDBDF802000026012828D10F
:107F7000BDF80400032824D1BDF80000012820D159
:107F8000A87004AA13494FF4405013F0DFF89DF88D
:107F90001000B0B10D4904AA091D8C70CC700C8082
:107FA000487920F0020048710B494FF4805013F0DB
:107FB000CDF89DF8100020B113F0DCF808B10126CF
:107FC00002E0AC70FFF7AAFF3046CAE72830002075
:107FD000C8470020C5B0030041B003002DE9F047B9
:107FE000002502F0EBFF544C002611276670E07864
:107FF00008B1082510E0A07870B9062201214F4889
:1080000007F090FA70B10125C580032202818580B6
:1080100007F0B1FAA5703546DFF81C81002408F19D
:108020000C081FE03D46F7E718F83410CA0717D0D0
:10803000880715D544F440510422404807F072FAED
:10804000C8B108EBC40245465268D243426007F00B
:1080500092FA15F8340020F0020105F83410354684
:10806000641CA4B254EA0500DED0DFF8CC80002402
:1080700008F104081FE03D46F2E700BF04EB440AA4
:1080800008EB4A0999F80500800712D544F480519D
:1080900002222A4807F046FAB0B138F81A20828046
:1080A00007F069FA99F80510354621F0020189F8C0
:1080B0000510641CA4B254EA0500DFD0DFF87C8010
:1080C0000024A8F1A80828E03D46F2E704EB84006C
:1080D00000EBC40108EB810999F83000C10718D002
:1080E000800716D544F400511422144807F01AFAF8
:1080F000050015D0281D49461422FEF719F9284617
:1081000007F039FA99F83000354620F0020089F876
:108110003000641CA4B2032C04D2002DD6D002E09F
:108120003D46F6E71DB10448343007F0C5FABDE816
:10813000F04702F085BF000028300020C84700202B
:10814000F0B50AB110BB01E00E20F0BD4FF6FF7391
:10815000138000230E4C0D0C1FFA81F603EB8301F4
:1081600001EBC30704EB8701B1F80CC0844509D1CA
:108170004988A94206D134F82710B14202D11380B0
:108180000020F0BD5B1C9BB2032BE7D30520F0BDA4
:10819000204700202DE9F04F834600F114068BB0F4
:1081A000304605F0C1FA00287ED04FF6FF71ADF8D9
:1081B0000810307801240025012811D07088A0F51E
:1081C0007F42FC3A09D0A0F57F42FD3A05D0A0F5E8
:1081D0007F42FE3A01D088420CD1A946254611E0E3
:1081E000684605F0E3FD7088BDF80010401A1FFADC
:1081F00080F9F3E702A9304605F04EFA10B178464F
:108200000CF0F4F9DFF8ACA0002700BF07EB870003
:1082100000EBC7010AEB810435B1A189494501D1C1
:10822000012006E0002004E0BDF8081020460DF013
:1082300011FD94F83010C90734D020B3BBF81E10DC
:1082400004F1080003F0F8F9E8B100204FF0020E45
:10825000228DDBF8001014E0636A1FFA81F833F80E
:1082600030C0C4450CD10EEBC00C33F80C304FEAD3
:10827000114C634504D180463078012804D008E0D1
:10828000401C8242E8D80DE0B8B25946E26A00F0DC
:1082900033FE0422616A02EBC800E26A0B58B8B2EE
:1082A000594698477F1C00E001E0032FAEDB0BB07E
:1082B000BDE8F08F2047002010B500F053FE0A49BA
:1082C0000848086008460EF0E9FD00F007FE00F0DF
:1082D0000FFD00F065FD00F043F8BDE8104001F02F
:1082E0008DB80000F94A0300BC47002070B5054670
:1082F000808944300DF03EF804002CD00520207118
:108300002868A0606868E06104F144002062A989DF
:10831000A184012184F82810E9896185D5E9041236
:10832000C4E90C12297E84F83810698B6187211DFD
:10833000E163A98BA4F84010AA89A968FDF7F8FFAA
:10834000214606480BF00AFD0448001F006802F0B1
:10835000C7FE002070BD042070BD000070300020FA
:1083600010B5034802F09CFE0249086010BD0000F1
:10837000798302006C30002070B5094C0BE0054693
:108380001C30FFF707FF06486168001D0BF0D4FDA5
:1083900028460CF0F1FF60680028F0D1012070BD84
:1083A0006C3000202DE9F04704000D460BD055B18C
:1083B000E06808B1A06830B14FF6FF7AA5F800A0D8
:1083C000E06818B106E00E20BDE8F087A06808B1AB
:1083D0000920F9E7A08808B10520F5E70A462168D9
:1083E00005F0AAFFDFF86C8160B1288800EB8001FE
:1083F00001EBC00108EB810090F83000C00701D00C
:108400000F20E1E7D4E90297002605E059F836008D
:108410000BF07DFBD8B1761CBE42F7D328885146BD
:1084200088425BD10020464600EB800202EBC0028E
:1084300006EB820292F83020D2070AD0401C0328B3
:10844000F2D350462880884205D10420BCE707209B
:10845000BAE780B2F6E700EB800202EBC00006EB61
:108460008000C180288800EB800202EBC00006EB90
:10847000800081802988A08801EB810202EBC10184
:1084800006EB810188812888618800EB800202EB7D
:10849000C00006EB800041802988208801EB810222
:1084A00002EBC10126F8210029882B4801EB81024B
:1084B00002EBC10106EB8101007848742188A08895
:1084C0000BF020F9288800EB800101EBC00006EBDF
:1084D000800010F8301F41F00201017028882169E6
:1084E00000EB800202EBC00208EB82024046D16240
:1084F0002A88A16802EB820303EBC20208EB820226
:1085000051622A88A18902EB820303EBC20208EBC5
:10851000820211852A88616902EB820303EBC202A1
:1085200000EB82029161298801EB810202EBC1021A
:1085300000EB82029182298801EB810202EBC101EA
:1085400008EB810010F8301F41F00101017000209C
:108550003AE70000204700202830002070B50E4682
:1085600004460DF051FB18B1092E03D3072070BD4E
:10857000052070BD04EB840000EBC4010A4800EB49
:10858000810505F108043146204603F055F808B18D
:10859000002070BD2046314603F02CF915F8300F4D
:1085A00040F002002870F3E72047002070B50E4627
:1085B00004460DF029FB18B1092E03D3072070BD26
:1085C000052070BD04EB840000EBC4010A4800EBF9
:1085D000810505F108043146204603F02DF80028F6
:1085E000EFD02046314603F005F815F8300F40F083
:1085F00002002870002070BD204700202DE9F041C6
:1086000015465FEA010806461BD0D5B130460DF08D
:10861000FBFAC0B100202F882880044606EB8600B4
:108620000F4900EBC60001EB8006083630462146B4
:1086300003F002F870B12888B84206D30920BDE8DB
:10864000F0810E20FBE70520F9E728F81040288884
:10865000401C2880641C082CE8D30020EFE70000B1
:108660002047002070B50C00054610D00DF0CCFA64
:1086700078B105EB850000EBC501074800EB8102EE
:108680005288628030F821002080002070BD0E20CA
:1086900070BD052070BD00002047002070B50C00A3
:1086A00005460DD00DF0B0FA60B105EB8500064926
:1086B00000EBC50001EB8000C06A2060002070BDA7
:1086C0000E2070BD052070BD2047002038B505463E
:1086D000092801D3072038BD00246946204600F050
:1086E000A7F830B9BDF80000A84202D1204600F03A
:1086F00007F8641CA4B2032CEFD3002038BD00009F
:1087000070B505460DF080FA30B305EB850000EB3F
:10871000C5011248002200EB810404F11400114647
:1087200000F00AFB284600F0C1F9E08805F042F8A5
:108730004FF6FF71E180A180E07C20F0FF00E07443
:1087400000206074A074A07594F8300040F002001E
:1087500084F83000002070BD052070BD2047002047
:108760003EB505460C001FD00020ADF8040001A85E
:10877000009002AB002228460FF0ECFD002814D137
:1087800005EB850000EBC5010B4800EB8101C87CBF
:1087900040070BD0BDF80400009022462846133154
:1087A000029B00F00FFB04E00E203EBD02980CF08F
:1087B000E3FD00203EBD00002047002070B50C0006
:1087C00005460DD00DF020FA60B105EB8500064995
:1087D00000EBC50001EB8000C0882080002070BD48
:1087E0000E2070BD052070BD2047002070B50C46DE
:1087F00005460DF009FA18B1052C03D3072070BD0A
:10880000052070BD05EB850000EBC501074800EBB6
:108810008100C188A14206D0C48090F8301041F098
:10882000020180F83010002070BD000020470020B9
:1088300070B50C0005460DD00DF0E6F960B105EB02
:108840008500064900EBC50001EB80008088208090
:10885000002070BD0E2070BD052070BD2047002097
:1088600070B50C4605460DF0CFF918B1092C03D3AD
:10887000072070BD052070BD05EB850000EBC5012C
:10888000074800EB81008188A14206D0848090F8DF
:10889000301041F0020180F83010002070BD00005F
:1088A0002047002070B50C0005460DD00DF0ACF946
:1088B00060B105EB8500064900EBC50001EB8000C7
:1088C000007C2070002070BD0E2070BD052070BDA2
:1088D0002047002070B50C4605460DF095F990B183
:1088E00005EB850000EBC501084800EB8100017C29
:1088F000A14205D090F8301041F0020180F830100C
:108900000474002070BD052070BD000020470020C9
:1089100070B514460D00064613D094B10DF074F9ED
:1089200088B106EB860000EBC601094800EB810028
:10893000816951B122462946143000F0EDF900203A
:1089400070BD0E2070BD052070BD062070BD0000FA
:108950002047002010B5032812D200EB800303EB60
:10896000C003154800EB830494F83000C00707D01B
:10897000A06938B13F2A01D8032905D9072010BDC5
:10898000052010BD062010BDA07CB2EB900F03D1D6
:1089900000F003038B420DD062F3870061F3010006
:1089A000A07404F1140000F0C7F914F8300F40F07F
:1089B00002002070002010BD2047002081B1032854
:1089C00010D200EB800202EBC002074800EB8200ED
:1089D00090F83020D20705D0C07C08700020704786
:1089E0000E207047052070472047002030B503282F
:1089F0001DD200EB800202EBC0020E4800EB8200A9
:108A000090F83020D30712D0C37CC9B203F007041A
:108A100001F00705AC4203D1DB08B3EBD10F04D062
:108A2000C17442F0020180F83010002030BD0520F2
:108A300030BD00002047002070B50C0005460DD069
:108A40000DF0E2F860B105EB8500064900EBC500CA
:108A500001EB8000407C2070002070BD0E2070BDB6
:108A6000052070BD2047002070B50C4605460DF06E
:108A7000CBF828B17F2C05D9FF2C03D0072070BD7F
:108A8000052070BD05EB850000EBC501064800EB35
:108A90008100417CA14205D000F8114FC17F41F017
:108AA0000201C177002070BD204700207CB505463B
:108AB000032801D305207CBD02F080FA69462846D0
:108AC00006F098FAD8B10024BDF8000012F04AF977
:108AD00001A92846FFF7E2FD10B178460BF086FDAC
:108AE000BDF80000022200EB400101EBC000064986
:108AF00001EB80000199436B2846984700E005246C
:108B000002F09EFA20467CBD8C48002038B5144601
:108B100041B13CB10022134600920A4621460FF0B3
:108B200019FC38BD0E2038BD70B50E4604460DF058
:108B30006BF868B104EB840000EBC401134800EB50
:108B40008105E889012805D0052E05D3072070BDD1
:108B5000052070BD062070BD0D4C314604EBC000F1
:108B6000001D02F069FD08B1002070BDE8893146A2
:108B700004EBC000001D02F03DFEE88914F830103F
:108B800041F0020104F83010EEE700002047002019
:108B90003430002010B504460DF036F858B104EB1F
:108BA000840000EBC4010B4800EB8101C889012857
:108BB00003D0002010BD052010BD074A1078C30760
:108BC00001D0042010BD40F0010010700020C881C9
:108BD000EFE70000204700203430002070B50E463B
:108BE00004460DF011F868B104EB840000EBC401F9
:108BF000134800EB8105E889012805D0052E05D32F
:108C0000072070BD052070BD062070BD0D4C31469B
:108C100004EBC000001D02F00FFD0028F5D0E8892C
:108C2000314604EBC000001D02F0E4FCE88914F8B2
:108C3000301041F0020104F83010002070BD000037
:108C400020470020343000202DE9F04115465FEA2E
:108C5000010804461DD0E5B120460CF0D5FFD0B187
:108C600004EB840000EBC401124800EB8106F0899C
:108C7000012812D000202F8828800446A1B2304657
:108C80000CF0E8FF80B12888B84208D30920BDE87D
:108C9000F0810E20FBE70520F9E70620F7E728F82A
:108CA00010402888401C2880641C052CE6D3002036
:108CB000EDE70000204700202DE9FC411C46154649
:108CC0000E0007460FD075B16CB101AB002203F066
:108CD000B3FB50B12B4600223146384600940FF0CA
:108CE00005FEBDE8FC810E20FBE70198F9E70000D6
:108CF00010B518210548FDF734FB04490448886085
:108D00000448002141608160017010BDEC470020E3
:108D100025A103007430002070B515460E460400EE
:108D200002D178460BF062FCA07800F003003070AE
:108D3000A0788008287070BD2DE9F04116460F46D6
:108D4000040002D178460BF051FC02F037F9134DC4
:108D50000021A86801E00146C06808B1A042FAD12C
:108D6000A27867F3010266F38702A27010B1C268AD
:108D700059B1CA605EB1204600F06CFBA868A04201
:108D800008D100BF13F002F804E0AA60F2E708B1CE
:108D90000029F7D0BDE8F04102F052B9743000204C
:108DA00010B588210548FDF7DCFA044804498160C4
:108DB0004FF6FF71A0F8861010BD00000448002097
:108DC00009B203002DE9F8439846089F91460E46E4
:108DD0000546032802D378460BF008FC16B97846FE
:108DE0000BF004FCB9F1000F02D178460BF0FEFB4A
:108DF0003078400702D178460BF0F8FBB8F1000F4D
:108E000002D178460BF0F2FB17B978460BF0EEFB77
:108E1000184C05EBC50004EB800090F8390010B148
:108E200028460CF0FDFC43464A463146284600974A
:108E30000CF0C4FC07F0F6FCB4F88610814201D1B6
:108E4000A94214D1A0F57F41A4F88600FF3902D1D0
:108E500078460BF0CBFBB4F8860000EBC00004EBC7
:108E60008000016BBDE8F843024814F0C5BABDE8C4
:108E7000F883000004480020F8B502F09FF8164D72
:108E8000B5F89C0028B10020A5F89C00284614F0F5
:108E90007FFA002404EB440000EBC40005EB8000E3
:108EA00090F8401089B130F8187F2C21C669FDF781
:108EB00058FA69463846FFF7F1FB10B178460BF0D7
:108EC00095FB022238460099B047641C032CE1D37D
:108ED000BDE8F84002F0B4B88C48002010B5A021DD
:108EE0000348FDF73EFA02490248886010BD0000C1
:108EF0008C48002069AB0300F8B517460C460646BF
:108F0000032802D378460BF071FB02F057F869464C
:108F1000304606F06FF800B3BDF80010104D01EBBD
:108F2000410000EBC10005EB80002388828D9A424E
:108F300013D1C08D628890420FD1084611F012FF04
:108F4000BDF80000002200EB400101EBC00005EB82
:108F500080003946436B3046984702F071F8F8BDFF
:108F60008C48002010B59C210E48FDF7FAF90E48F8
:108F700000210C4B41600181C160016108464FF640
:108F8000FF71012400EB800202EBC00203EB8202BE
:108F9000401CD1809180D48180B291810328F1D38B
:108FA00010BD00002047002028300020010CA1F552
:108FB0007F42FF3A01D00320704780B2FF2801D9D9
:108FC000022070470120704710B591F848000C4608
:108FD000022802D078460BF009FB022084F86800D2
:108FE0002046E16C12F0F6FA002801D184F86800FE
:108FF00010BD000010B5074811F08EF938B90548CA
:109000001038416809B1807808B1002010BD0120F6
:1090100010BD0000EC30002070B50546012014F0B2
:10902000B9FB0D4C656011F0FDFA00F063F8626861
:109030000025D1680144A160A5700121E17011698A
:1090400012689047E570A078002803D0BDE8704012
:1090500005F03EBB70BD0000DC30002070B514F0A0
:10906000DFFA002842D1224811F056F905004FF0EE
:10907000000400D02C6814F013FB064614F00AFB21
:10908000DCB1E1686431814204D9BDE8704001205F
:1090900014F01ABBB14210D212F000FE144811F0C5
:1090A00043F9A84202D078460BF0A0FA0020606194
:1090B0002046BDE87040FFF7AFBFB6F5FA7F15D97F
:1090C00012F03EFD70B10A4C103C607800280DD1C2
:1090D00011F0A8FA0120607000F00CF8BDE87040B3
:1090E00012F0A0BDBDE8704014F066BB70BD00007A
:1090F000EC30002070B514F0A5F814490020C1F838
:109100004001134A01231360114D0424303D2C60AB
:109110000F4C3C3C2060241D20600F4D0D4C2C60FA
:109120002D1D0E4C2C600C4D0C155C3D2C600B6005
:10913000D1F84031002BFBD0C1F840010648583827
:109140000460074800681168401A70BD00A0004024
:1091500040A5004040A1004060F50140488000402B
:10916000488500400349002091F84410002900D0B0
:1091700001207047384600202DE9F0419846074607
:109180000C468E1818E00E48056810E061782846F5
:109190000AF0D6FC68B141788568B94201D0FF2950
:1091A00005D121784368A01C4246491E9847002DEE
:1091B000ECD114F8010B0444A642E4D8BDE8F081D8
:1091C000D830002070B505460AF09AFB002814D16B
:1091D0001048006890B10026287888B101F0BAFEE6
:1091E00005F108010B480AF0B9FD2EB1002001F08D
:1091F000CFFE012001F0BEFE002070BD0126EBE78E
:109200000024E0B201F0A6FE641CA4B2FF2CF8D941
:10921000E6E70000D83000201CB5EFF3108111F014
:10922000010F72B60D4A5368C0F8C431506000D1C6
:1092300062B60B49097809070ED50A49096804295D
:109240000ADB09490B6809A1CDE900104FF4C87287
:1092500011A104200AF0FAFE1CBD000034310020E8
:10926000142F0020182F00200415014050422D41DA
:1092700044563A20636F6E746578742061742030B0
:1092800078252E30387820616464656420746F20FE
:109290006265617265720A0070726F765F62656105
:1092A0007265725F6164762E630000002DE9FC41F7
:1092B00015460E00074608D001AA694600F074F969
:1092C00000242DB1012D08D00FE00E20BDE8FC8157
:1092D0009DF80410032906D107E09DF80410032926
:1092E00003D0012901D0102418E068B9BDF800109E
:1092F000A1F57F40FF3813D038460DF089FBBDF84B
:109300000010012006F072FBBDF800100748318004
:1093100000EB810035B18178491C81702046D5E78A
:109320000424FBE7C178491CC170F7E754490020C9
:109330002DE9F8434FF6FF7690460D460700ADF84D
:1093400000600BD055B1694615F050FF0100BDF823
:10935000000000F1030294B203D00FE00E20BDE83C
:10936000F883B04201D10420F9E72146384615F0D0
:1093700019FFBDF80010022006F038FB2C80BDF864
:109380000010084801EB8101B8F1000F00EB8100EB
:1093900004D08178491C81700020E0E7C178491C25
:1093A000C170F9E72C49002070B5134904460868DC
:1093B00038B1636808684FF000454068181AA84241
:1093C00003D3086860610C600AE0086800E010469A
:1093D00042691AB15668F61AAE42F8D26261446127
:1093E0008888401C0004000C888002D178460BF06D
:1093F000FDF80120207070BDE02F002010B586B070
:109400000F4803900F4804900F48059004200290E5
:1094100004F066FCA0F5805000900C4C01200190F7
:10942000E07069460A4805F021FF28B104F11400F4
:1094300006F042F906B010BD0020E070FAE7000027
:109440007DFB02003DF20200D9F902002830002025
:10945000C847002070B50446807810F0030112D090
:10946000012912D0022915D0032916D078460BF015
:10947000BDF80020154A51684FF000454318A3601D
:109480000020916811E08008F4E7800800EB80007C
:109490004000EFE78008642102E0800841F270712B
:1094A00010FB01F0E6E70846C96819B18E689E1BFB
:1094B000AE42F8D318B1C46021B1E16070BDE16083
:1094C000946070BD0020E06070BD0000743000202A
:1094D0000A4681B210880DF09BBA0000024A32F8A9
:1094E00020000880704700005449002002480968A5
:1094F000C0F8021070470000803000200248D0F809
:1095000002000860704700008030002002460846D4
:10951000D21C91B215F046BE0246084602EB82010B
:10952000034A02EB81011022091DFCF701BF000074
:109530002C4900202DE9F041044600F07FF8002579
:1095400078B1174E06EB8400817821BBC07810BB40
:109550002146144802F05AF826F8245021460120EA
:1095600017E0204600F084F8C0B1E41E0C4E04EB76
:109570008407283E06EB8700817861B9C07850B92E
:1095800008482146001D02F041F826F827502146E0
:10959000022005F025FE0020BDE8F0810520FBE754
:1095A000544900208C3000202DE9F0414FF6FF7621
:1095B00014460D4607460E800DF014FB207002285D
:1095C00004D0032819D0012817D030E0DFF86480D8
:1095D00000242888B04204D12146174802F037F809
:1095E00048B104EB840138F82100B84217D0641C5C
:1095F000022CEED31BE02C80F9E7DFF83880002442
:1096000008F128082888B04205D10B482146001FE0
:1096100002F01DF838B138F82400B84204D12C808B
:109620000120BDE8F0812C80641C032CEAD30020CB
:10963000F7E700002C4900209030002010B50328E7
:1096400006D20146034802F002F808B1012010BD1D
:10965000002010BD8C30002010B50446FFF7EEFF4F
:1096600020B9204600F004F8002800D0012010BDE9
:10967000C01E10B581B2022905D2044801F0E7FFEF
:1096800008B1012010BD002010BD00009030002066
:10969000F0B5194A1430117B49B10023164D4478B6
:1096A00000211035A41F4FF0010CE6B219E0012390
:1096B000F4E74418677AA47A4FEA541E04F01F04B2
:1096C00055F82EE00CFA04F41EEA040F07D0701AC5
:1096D000B8420EDC106B401C10630120F0BD394411
:1096E000491C8E42E5DC13B1506B401C5063184698
:1096F000F0BD83F00103F6E7284E0020F0B5254DBC
:1097000091B095F82010E8690DF016FB04466878D2
:10971000002541F6280690B301282ED110A90FA8E4
:109720000DF0E2FFBDF83C700DF11A000595ADF8A3
:1097300018500821183411F041F93846FCF77CFD27
:10974000ADF822000BAA05A9204604F027FE01204F
:109750008DF800000D98CDF801000E98CDF80500A9
:10976000DDF81A00CDF80900DDF81E00CDF80D0077
:109770001122694630460AF0CBFD11B0F0BDFFE77B
:109780008DF800502069CDF801006069CDF8050022
:109790000922EEE7A046002038B50B496A460D467F
:1097A00000200DF06BFA084C1C3CE069002809D140
:1097B0006A4629460DF062FAE069002802D178462F
:1097C0000AF014FF38BD0000BC46002070B5144CF0
:1097D00005460E466070207808B10AF04DFE4EB185
:1097E000FFF7DAFF13F0AAFD21690144201D13F0F1
:1097F00003FE02E0201D13F0CBFD65B14FF4A07114
:109800004EF660200AF002FEFFF778FF0AF010FE25
:109810000120207070BD4FF448610020F2E7000085
:10982000A046002010B5FFF7B7FFBDE81040FFF7D6
:1098300065BF0000054BC01AA023001F90FBF3F08A
:10984000C0B20B460146024803F0EABAB437002022
:10985000743A002010B504464FF08050D0F8A000B4
:1098600010F0010006D048B1207820F0FE00801CE6
:10987000207006E0207820F0FE00F9E778460AF034
:10988000B5FE06480168C4F801108088A4F80500F8
:109890002046BDE8104013F0C1B80000A40000103D
:1098A00070B50C46050000D014B978460AF09EFE4B
:1098B0002078410806D00121B1EB500F02D0784644
:1098C0000AF094FEEFF3108000F0010672B62068F3
:1098D000A866A088A5F86C00A07985F86E0005F14F
:1098E000680013F09BF8002E00D162B670BD002115
:1098F00000F8441B13F04CBD10B504460078002856
:1099000010D101202070606828B904F15C000EF0CD
:1099100076FD002806D004F14400216FBDE8104018
:1099200012F01ABA10BD10B504465C300EF0BCFD42
:10993000EFF3108000F0010072B6616809B10022F7
:109940000A71002800D162B610BD0000014811F074
:1099500067B80000604E00202DE9F0411D46174613
:109960000E46040000D017B978460AF03FFE0A2DD3
:1099700002D878460AF03AFEAAB2394604F15C00F1
:109980000EF0F9FD04F168052846FFF763FF44F681
:109990002060A860174900202B180A5C401CC0B248
:1099A0001A730328F8D3E87300202874124921633E
:1099B00025216185032184F82C1084F8280004F106
:1099C0007401A16394F8771084F83C100B49E667A2
:1099D000616360620A496465E1642070002E07D00B
:1099E000224604F18000BDE8F041064901F050BC78
:1099F000BDE8F081A0FE0300D6BE898EFBBB02004D
:109A000025D103008DE3030070B50D46040002D19B
:109A100078460AF0EBFD142D02D278460AF0E6FDF6
:109A2000B5F5205F02D978460AF0E0FD4FF47A7070
:109A30004543204625670AF00BF8002809D0207816
:109A4000002806D004F14400216FBDE8704012F0F8
:109A500083B970BD38B50C46050002D178460AF0CE
:109A6000C5FD1F2C02D978460AF0C0FD04F1110093
:109A700082B2694605F15C000EF034FE30B1042874
:109A800002D078460AF0B2FD002038BD0098A41D2F
:109A9000011D00F10C024473007B20F00F039B1C9E
:109AA0000B72104695F86820520862F38613037013
:109AB00055F8692FC0F80320AA88A0F807200020D5
:109AC0000860084638BD70B50C00054600D015B9D1
:109AD00078460AF08BFD211F05F15C00BDE870405F
:109AE0000EF00BBD70B50C00054600D015B97846D8
:109AF0000AF07CFD207910B978460AF077FD207ACB
:109B0000211F20F0B00020720020A0720A8805F109
:109B10005C000EF093FC287800280BD0284609F052
:109B200097FF002806D105F14400296FBDE8704079
:109B300012F012B970BD70B50D46040002D178461E
:109B40000AF054FD84F8285070BD00002DE9F0475C
:109B5000884602F10F010D0990B0174601469A465A
:109B600010226846FCF7E4FB07F00F0405B18CB146
:109B700000260221684600F047F80F37390908EB44
:109B80000111002708A88146103936B1024610237A
:109B90000CA812E001263146ECE70CAE2246304616
:109BA000FCF7C6FB8020305500E03755641C102CB4
:109BB000FBDB0CA910234A46084615F055FA002491
:109BC000089709970A976D1E04AE0B970AE000BF2D
:109BD00008EB041210234946304615F045FA684652
:109BE00046DF641CAC42F3DB10234A460CA9304626
:109BF00015F03AFA684646DF102249465046FCF70F
:109C000097FB10B0BDE8F0872DE9F0410C46804687
:109C1000012904D0022C02D078460AF0E7FC10217A
:109C200008F11000FCF79DFB404646DF012108F1DA
:109C3000200222E098F8200010234FEAD01C0020D8
:109C40005D1E165C1718760016547F7846EAD71703
:109C50001754401C80B2A842F3DBD018134410F80C
:109C6000010C400003F8010CBCF1000F03D0D07BC5
:109C700080F08700D073491CC9B2A142DAD9BDE88F
:109C8000F08130B587B00446407B8DF80400206831
:109C9000A168C07A08B1082000E004200844093017
:109CA00002902068039060680490207B8DF8140077
:109CB000694601A803F0D6F8D0B1607B01280ED028
:109CC0000CF070FD2168086120680C300CF036FD46
:109CD000050004D003F03CF9284607B030BD2168E8
:109CE00000980CF0B5FB0098093020610020F4E7E3
:109CF0000420F2E770B5374B374D86B01C68374B00
:109D000001281B6835D06FF4805680193BD0B0F520
:109D1000405F46D06FF44056F0424FEA434011D1C5
:109D200000281CDA012C1ADB2B68108852682CA43E
:109D3000CDE90220CDE90041692231A101200AF0DC
:109D400085F90CE000280ADA012C08DB2B6831A029
:109D5000CDE900017B222AA101200AF077F93449DC
:109D60004FF4F010086032490C39086072B631487F
:109D70002AE05804F3D5012CF1DB2B682EA08DE8E6
:109D80000700602208E05804E9D5012CE7DB2B68C6
:109D900030A08DE80700632219A101200AF056F9CE
:109DA000DDE75804DBD5012CD9DB2B6815CACDE9DA
:109DB000032031A00090CDE90141732210A10120C0
:109DC0000AF044F9CBE730BF01780029FBD106B097
:109DD00070BD0000182F002004150140142F002032
:109DE0004D657368206173736572742061742030EF
:109DF0007825303878202825733A2575290A0000FF
:109E00006170705F6572726F725F7765616B2E63F0
:109E100000000000554E4B4E4F574E204641554CCA
:109E200054206174203078253038580A0000000032
:109E3000180500506C2E0020536F667464657669B7
:109E40006365206173736572743A2025753A2575D0
:109E50000A0000004170706C69636174696F6E2064
:109E60006D656D6F7279206163636573733A202548
:109E7000753A25750A0000004D6573682065727299
:109E80006F72202575206174203078253038782055
:109E90002825733A2575290A0000000002494968FF
:109EA000002900D008477047403100202DE9F041DB
:109EB0004FF6FF760F4F0D4680460E800024214658
:109EC0000D4801F0C4FB58B1C4EBC40000EB4000E6
:109ED00037F81010414507D12C800120BDE8F081F2
:109EE0002888B04200D12C80641C082CE7D30020C5
:109EF000F4E70000804C0020983000201CB5C26EB2
:109F0000044600F17401904704F130000BF0E4FEC8
:109F1000B4F87400A4F876000021E167A167ADF8F9
:109F20000000ADF80200A06F01906946204606F0DF
:109F300051F91CBD024A52F8202008461047000083
:109F4000D4F80300024A52F82020084610470000C7
:109F5000E4F8030010B5040019D0A06EB8B1E06EAB
:109F6000A8B10C48E062204606F00EF900280FD197
:109F700009480849C4E91040103104F18C0005F08B
:109F8000DCFE04F13000BDE810400BF0DBBE0E201B
:109F900010BD0000B4F80300C53C03000A4808B532
:109FA000808908800948008840040CD5084800686A
:109FB000042808DB0748036807A00090E42210A1EA
:109FC00004200AF043F808BDA02D0020142F002023
:109FD000182F0020041501402D2D2D2D2D206170EE
:109FE000705F6C6576656C5F7365727665725F67CE
:109FF00065745F636220202D2D2D2D2D0A00000039
:10A000006D61696E2E6300000E4808B5C160084698
:10A0100011F098FC024600210B4800F05BF80B4859
:10A02000008840040CD50A480068042808DB094869
:10A03000036809A00090DC2211A104200AF006F8B0
:10A0400008BD0000A02D002064F80300142F00209C
:10A05000182F0020041501402D2D2D2D2D2061706D
:10A06000705F6C6576656C5F7365727665725F7341
:10A0700065745F636220202D2D2D2D2D0A000000B8
:10A080006D61696E2E63000030B542680B4C137928
:10A09000E15C0120FF290ED0FE290DD012684FF49B
:10A0A000A86505EB81015158054A52F823209142D9
:10A0B00002D1FF20E054002030BD0000113100200B
:10A0C000FC550020006801EB410100EB8100808815
:10A0D00080B2704770B50446006816460D4690F889
:10A0E000212001EB450100EB8101022A01D008206B
:10A0F00070BD4968B14205D1C16909B36068007992
:10A1000088471DE02046FFF7BFFF08B1112070BD52
:10A1100061680C4AFE20097950543246294620468F
:10A1200010F084F82068C06950B16168064A0220C6
:10A13000097902EB41014855022160680DF078FE73
:10A14000002070BD11310020105600202DE9F84F7D
:10A1500007688946054601EB490897F821001E4625
:10A16000924607EB880410B10820BDE8F88F4FF045
:10A17000000B3248C4F804B0A672006800900A22AE
:10A18000296802EB8800085C40B100208DF80100CE
:10A19000694650460DF0B2FCB0B901E00120F5E788
:10A1A00047F828A04FF001084FF0A04108FA0AF044
:10A1B00016B1C1F80C0501E0C1F808050027E01947
:10A1C00008300DF059FD08B10420CEE77F1CFFB226
:10A1D000022FF4D3207A0DF0A7FD607A0DF0A4FDD4
:10A1E000206836B10DF03CFC064620680DF038FDC5
:10A1F00005E00DF035FD064620680DF031FC074600
:10A20000494668680DF005FE0146207A32460DF099
:10A2100069FD022168680DF0FCFD0146607A3A464E
:10A220000DF060FD84F80B806968054A097902EB3E
:10A23000410202F809B0002097E70000780204000C
:10A24000105600200068008B80B270472DE9F0475F
:10A250000025DFF8689007680446A846626805EBA9
:10A26000450007EB8006137909EB430202F80580ED
:10A27000F17A71B10A22216802EB8000085CD8B142
:10A28000002130680DF0ACFC30680DF097FCC6F88A
:10A2900004806D1C022DE1D36168094AFF20097911
:10A2A000505460680DF094FD60680DF0E1FD0220EF
:10A2B00087F82100BDE8F0870121E2E71056002071
:10A2C000113100202DE9F74F84B00E00044607D06D
:10A2D000256895F8210028B1082007B0BDE8F08F67
:10A2E0000B20FAE70CF0CAFB18B1852801D0042036
:10A2F000F3E70DF0F9FB20B90DF0BEFB08B1032028
:10A30000EBE74E48DFF838A1002100784FF0010B51
:10A31000C0F30310032821D08AF800B0FF2285F88B
:10A320002020002091464FF0FF3C00BF00EB40078B
:10A3300005EB8703401CD97283F8089083F80990D5
:10A34000C0B245F827C00228F0D305F120000DF077
:10A3500093FC30B120460FF009FFC8E78AF80010DF
:10A36000DCE7002756F82720501C12D0F019394698
:10A37000037A2046FFF7EAFE5FEA000804D0204691
:10A380000FF0F4FE4046A8E7002239462046FFF7CA
:10A39000A1FE7F1CFFB2022FE4D3002009224FF45C
:10A3A0008053316901E04908401C994201D3904231
:10A3B000F9D39AF8001009B100B90120214AD2E975
:10A3C0000112CDE901128DF8040060681E4A01A94E
:10A3D0000079029060680DF06FFD070004D0204600
:10A3E0000FF0C4FE384678E7606831690068D0F83D
:10A3F00010050E01C640AE6160680DF0E9FCCDF8B5
:10A4000000B05F4604233246022160680DF03EFD35
:10A41000022160680DF005FD0698E86160680B494F
:10A42000074A0079521C41F820406168097902F816
:10A43000019085F8217000204FE70000E80F00F040
:10A440001031002078020400D5A103001C56002022
:10A450003038042801D801F0EDBC7047401A20F0D4
:10A460007F407047014800687047000004150140B4
:10A47000084B9B7823B12AB120B10068037C1BB143
:10A48000082070470720704700230374417442611D
:10A4900018467047085700202DE9F041012778043D
:10A4A0004FF0E0210024C1F88001BFF34F8FBFF3CC
:10A4B0006F8F214D1F48C5F84803C5F808036F602A
:10A4C0002F200DF0C5FAAF601C4E2F20F4600DF068
:10A4D000BFFA1B48B4700B21047044708170B460E3
:10A4E000347074701420FDF7BFF906211420FDF7B5
:10A4F000FEF91420FDF7D2F912480460062111205C
:10A50000FDF7F5F90F48001F0068F0600220C5F85C
:10A510004403C5F804031120FDF7A6F91120FDF747
:10A52000BDF92F602F200DF093FAF7700020BDE8E1
:10A53000F081000002000300001001405C310020A7
:10A5400008570020081501402DE9FC47DFF87890F6
:10A5500099F8023073B368B3052902D20720BDE829
:10A56000FC87436933B3437C012B25D00027044685
:10A570000025884616468DF80050684600F098F889
:10A5800001A814F049FDC8B1012101700F494460D0
:10A590000968C0E90218C0E904769DF8040089F84A
:10A5A00001009DF8000000F0A7F81420FDF792F9D3
:10A5B0002846D4E70820D2E70F46D8E704259DF8BF
:10A5C000000000F099F8F3E7085700200415014057
:10A5D0000649897839B130B1416921B1002101744E
:10A5E000022112F0BFBF082070470000085700206A
:10A5F0002DE9F04117460E460446092826D2082CBC
:10A6000001D2014601E0A4F1080101D2254802E08F
:10A61000244800F1040001F01AF8B8B104EB44003A
:10A62000214B00EBC40003EB40083188C4EBC400AD
:10A6300000EB4000A3F5A873A1F57F4203EB4005B2
:10A64000FF3A09D1082C04D2688804E00520BDE84F
:10A65000F08138F8AE0C30803188042913D21148CB
:10A66000001F00F0F4FF70B1082C15D2308800EB09
:10A67000C00101EB00100D4901EBC00090F864002F
:10A68000022802D005E00820E1E7A87D08B11735CF
:10A6900000E02D1D3D6002E0A8F1AC003860002014
:10A6A000D5E7000098300020D04D00206049002000
:10A6B00030B5EFF3108172B60D4A9468012324B1CE
:10A6C0000370002900D162B630BD93604FF0E023E3
:10A6D000D3F88051074C25401560C3F88041D3F86A
:10A6E000844154605A17C3F8842100220270E8E7BD
:10A6F00030560020FC06FFBD0B498A68002A11D0A5
:10A7000000280FD1EFF3108072B60B684FF0E022F3
:10A71000C2F800314B68C2F8043100228A60002878
:10A7200000D162B670470000305600202DE9F04796
:10A730001E468146C3EBC600154D924600EB40070E
:10A74000884605EB4704A01D10225146FBF7F0FD9B
:10A7500004F119001021FBF704FE611D50460CF0B6
:10A76000FBFB10B1784609F041FF00202071A07575
:10A7700025F81790A4F802803146064801F046F803
:10A780003146BDE8F0470348183001F03FB80000FB
:10A79000804C0020983000202DE9F04114460646F8
:10A7A00083B24F880D4608880A1D3946FFF7BEFF61
:10A7B000242C06D0142C20D07846BDE8F04109F0B6
:10A7C00015BFC6EBC60000EB40020D48012100EBAF
:10A7D000420404F11900A17505F1140110220D467F
:10A7E000FBF7A6FD04F1180128460CF0B5FB10B1EB
:10A7F000784609F0FBFE2079E075BDE8F0810000A5
:10A80000804C00202DE9F0410D46044616462421D7
:10A810002846FBF7A6FDC4EBC40000EB4007DFF8B9
:10A820003C80102208EB4704A11D281DFBF780FD8A
:10A8300038F81700288060886880A07D40B104F156
:10A84000190105F11400BDE8F0411022FBF770BDBD
:10A850003088001F3080BDE8F0810000804C00206F
:10A860001CB50AF011FF04F017FF074C48B1074967
:10A87000D1E90901CDE900016846FFF70FFB00208F
:10A8800000E0032020701CBD403100205C07040064
:10A89000F0B5164689B00F4604461D461A463146A5
:10A8A000684614F0DBF821462B466A46084614F049
:10A8B000C5F869462B463246084614F0BFF83946BB
:10A8C0002B466A46084614F0B9F809B0F0BD400CB2
:10A8D00001D00020704701207047000070B5144877
:10A8E000002544681FE000BF94F8AC01C8B184F8AB
:10A8F000AC5194F8A100042894F8E00002D002289A
:10A900000CD00EE0022803D104F1A80012F040FDA3
:10A91000204694F8A41001F0C7FD02E020460EF096
:10A92000FEFBD4F8C441002CDED1012070BD000034
:10A930003431002010B5044600F040FB206D10B902
:10A94000784609F053FE94F8540010B9784609F09F
:10A950004DFE0E48016809B1012200E00022A16508
:10A96000046072B918210A48FBF7FBFC12F0E6FC00
:10A97000084942180648C1600749C0E9012112F0A0
:10A9800057FDBDE8104000F05BBB000058310020CF
:10A99000F056002040420F009DA9020070B5154EF0
:10A9A000002534681BE000BF94F8540028B1401E15
:10A9B00010F0FF0084F854000FD13068844202D1B7
:10A9C000A06D306005E015B9784609F00FFEA06D66
:10A9D000A865226D0021204690472546A46D002CD5
:10A9E000E2D13068002804D1BDE87040024812F07E
:10A9F000CFBC70BD58310020F056002070B5044621
:10AA0000006D0D46002814D000F0D8FA94F85400D8
:10AA100000B1012084F8545038B935B1226D0121BC
:10AA2000204690472046FFF785FFBDE8704000F0C4
:10AA300007BB70BD30B504468BB0D0F8020003F000
:10AA4000BFFE050002D1784609F0D0FDD4F802100F
:10AA5000284603F06DFE05460078400702D478468C
:10AA600009F0C4FD287800F0FB0028702078022847
:10AA70000AD12C220F496846FBF75AFCD4F8020091
:10AA80000190684603F046FF09F0E2FF20B10BB0E9
:10AA9000BDE8304002F032BC074900202C2208708B
:10AAA000044968462C31FBF743FC684603F032FF4B
:10AAB0000BB030BD80FB0300202F00202DE9F05F9C
:10AAC000374C206910B9784609F090FD606910B9DB
:10AAD000784609F08BFD4FF0000AA146D9F8141012
:10AAE000D9E903040A0B1203551A05F5805505F040
:10AAF00015FE00F58057A8460025608808F091F8FB
:10AB000028B93946204605F049FE040005D04FEA31
:10AB1000143B26464FEA0B3B09E02E46002416E084
:10AB2000208805EB8005204605F064FE0446BC4203
:10AB30000DD2208805EB8001414508D2210B090385
:10AB4000594504D1608808F06CF80028E8D1274600
:10AB5000CDB12A4631464C46124BD9F8140004F0C8
:10AB6000CAFA10B10020BDE8F09F606925F003012A
:10AB7000084460610FB1276108E0784609F036FDAE
:10AB8000C9F810700AE04FF0010A3FB17888A0F5CB
:10AB9000FE41FF3902D0BAF1000F9FD00120E2E759
:10ABA000903B0020F82E00202DE9F0411D469046F4
:10ABB0000F4638B1B8F1000F04D01DB1FF2F01D0FE
:10ABC0001C2D02D90020BDE8F081A91CCEB2711C59
:10ABD000FEF740FF04000CD004F111002B2100F817
:10ABE000016B2A4600F8011B414600F8017BFBF788
:10ABF0009FFB2046E7E7000010B5000C0C46B0F5BF
:10AC0000837F02D0784609F0F1FC0248007820707A
:10AC100010BD0000482F00202DE9F041C4B01746B8
:10AC20000C46050002D1784609F0E0FC2CB3601E0A
:10AC3000C1B22878002620B3012827D0294E3188B8
:10AC4000C9054BD5284FDFF8A480396802290CDBF1
:10AC5000D8F8003026A1CDE900106D222EA10220E7
:10AC600009F0F4F93088C00538D53868042835DB98
:10AC700003A9802C0FD200201FE0092044B0BDE8BA
:10AC8000F0813A46681C0EF057F828E03A46681CF6
:10AC90000BF0C0FA23E080240020224B2A185278BF
:10ACA0001B6803EB121602F00F02367801F81060F1
:10ACB0009A5C01EB4003401C5A70A042EDD3002087
:10ACC00001F81400D8F8003017A01CA2CDE900202C
:10ACD00002916E2210A1042009F0B8F90B2630462B
:10ACE000CCE70000142F0020182F0020041501408D
:10ACF000476F7420756E7265636F676E6973656404
:10AD000020626561636F6E2049443A203078252EB9
:10AD10003032782E0A000000626561636F6E2E6328
:10AD200000000000102F0020426561636F6E2072EA
:10AD3000617720646174613A0000000025733A2055
:10AD400025730A002DE9F8431D4616460F460446B2
:10AD5000002316220121DDF820800DF0E1FA10B168
:10AD60000420BDE8F883E06C009043462A46314653
:10AD700038460BF0EEF910B1784609F037FC204662
:10AD80000DF09CFD0020ECE7F8B5054607480024CF
:10AD900090F844603EB1009313460A462946FFF7F7
:10ADA000D1FF00B104242046F8BD00003846002041
:10ADB00070B5000C0C46B0F5837F02D0784609F0E0
:10ADC00015FC104D2478287834EA00010DD00E4887
:10ADD000FEF792FD12F0B2FA0B491839C968014426
:10ADE0000948183812F008FB08E0A04306D00648CE
:10ADF000FEF77DFD0448183812F0CAFA2C700020C6
:10AE000070BD0000482F0020983F0020F0B58DB0A5
:10AE1000064605AA3E4900200BF030FF3C4C4FF49B
:10AE20001675241F6FE042685168701AB0F1004F28
:10AE300000D3881B374908444900B0FBF1F30021D7
:10AE40004FEA010032F81070401C39440228F9D34F
:10AE5000491C01EB81004000A84200D32846178816
:10AE600057806268002183425268118046D30BF0FC
:10AE700051FB05460BF0CAFB02469DF81400022860
:10AE8000606805D000F1080005D14FF0010104E031
:10AE900000F13000F8E74FF0000106AB00932B46BD
:10AEA00009F06EF9152306AA01211B48FFF77CFE65
:10AEB000010021D0012008711748FEF713FE174842
:10AEC0000078800715D516480068052811DB15485D
:10AED0000368606801AFC57E827E417E007E87E8A0
:10AEE000270011A0009040F2031215A1052009F0DF
:10AEF000ADF86068406846600DB0F0BD05AA044931
:10AF000000200BF0BBFE606800288CD1F4E7000045
:10AF10004C2F002020A10700983F0020142F002074
:10AF2000182F002004150140424541434F4E205444
:10AF3000582025783A25783A25783A25780A00006D
:10AF40006E65745F626561636F6E2E630000000062
:10AF5000FFF75CBF10B50649420900F01F0451F825
:10AF600022300120A040034341F8223010BD0000F0
:10AF7000384E002028B1054903480860084603F010
:10AF800047BF024803F058BF91960200284E0020A8
:10AF900010B5040004D0012C02D0784609F026FB3D
:10AFA0000148047310BD0000284E00200079097983
:10AFB000884201D101207047002070472DE9F041FF
:10AFC000EFF3108000F0010472B61A484168491C82
:10AFD0004160012901D021B326E080780F2823D0D9
:10AFE000EFF3108072B614498B68124D01226D1C6C
:10AFF000002613B12A7090B116E08A604FF0E0226B
:10B00000D2F880710D4B1F400F60C2F88031D2F82A
:10B0100084314B605117C2F884112E70EBE762B691
:10B0200002E0784609F0E2FA002C00D162B6BDE8F1
:10B03000F0810000A02E002030560020FC06FFBD4D
:10B0400070B5EFF3108000F0010572B6124C606825
:10B0500010B9784609F0CAFA6068401E606016D1DF
:10B06000A0780F2813D00D4960788B68002273B147
:10B0700068B9EFF3108072B60C684FF0E023C3F8A4
:10B0800000414C68C3F804418A6000B962B6002DE3
:10B0900000D162B670BD0000A02E00203056002006
:10B0A00070B5050002D1784609F0A0FA0A4CE068B4
:10B0B0000A2802D3784609F099FAEFF3108010F0CD
:10B0C000010F72B6E06800F10102E260034A42F843
:10B0D000205000D162B670BDA02E0020683700203D
:10B0E00070B504460E48C068844202D3784609F021
:10B0F0007DFAEFF3108000F0010572B608480123D5
:10B100000830610904F01F0450F82120A3401A43BD
:10B1100040F8212012F076FD002D00D162B670BDFE
:10B12000A02E00202DE9FF412F4D4FF00108287877
:10B1300010B1784609F05AFA012600242E702746ED
:10B1400023E0294804F01F030830620950F8221058
:10B1500006FA03F0014217D0EFF3108313F0010F4A
:10B1600072B6214B21EA000103F1080343F82210D3
:10B1700000D162B61D4850F82400804720B94FF036
:10B1800000082046FFF7ACFF641CE8688442D8D36F
:10B19000154810300FF0C8F8D8B10468207C10B9F9
:10B1A000784609F023FAD4E9021088472774EFE7BC
:10B1B0009DF8000040B101280BD1019848B1DDE9AC
:10B1C0000201019A904704E0019810B1DDE90110F5
:10B1D00088476946064803F073FE0028E8D02F70C0
:10B1E00004B04046BDE8F081A02E00206837002062
:10B1F0005436002038B505F0E1FB8DF800009DF9CC
:10B2000000000C4C103009D09DF90000FCF753FBF6
:10B210000090A17888420AD003D806E0A0780F28D1
:10B2200005D0122005F0D2FB08B1002038BD012066
:10B2300038BD0000A02E002010B5124C1249A0709D
:10B24000A1F11400016010214160816003F01EFE35
:10B2500004F110000FF056F8A4780F2C0BD0122038
:10B26000FCF764FB40B12046FCF784FB20B10749A2
:10B27000600181F8000410BD7846BDE8104009F077
:10B28000B5B90000A02E00206836002012E000E0D2
:10B2900070B516460D46040002D1784609F0A6F9AD
:10B2A00015B9784609F0A2F9EFF3108010F0010FFC
:10B2B00072B6C4E902564FF000012174246000D137
:10B2C00062B670BD10B5040002D1784609F08EF95F
:10B2D000207C10BD70B5040002D1784609F086F9D3
:10B2E000A06810B9784609F081F9EFF3108000F0FA
:10B2F000010572B6207C08B1112008E001202074FD
:10B30000214605480FF026F812F07CFC0020002DA5
:10B3100000D162B670BD0000B02E0020114810B5FB
:10B3200080780F2813D012242046FCF7FFFAA0B132
:10B330002046FCF7C0FAFCF71DFB70B10A48826892
:10B340004FF4802122B1016841F48021016010BDD9
:10B350004FF0E020C0F8001110BD7846BDE8104065
:10B3600009F044B9A02E00203056002010B50D4C35
:10B37000606810B9784609F039F912F085F910B90A
:10B38000784609F033F9A07810B1784609F02EF923
:10B39000E07810B10120A07010BDBDE8104003F0AE
:10B3A00097B90000DC30002010B5040002D17846C7
:10B3B00009F01CF9206810B9784609F017F9E0681F
:10B3C00010B9784609F012F90D49E068884202D9AF
:10B3D000784609F00BF96069A04201D1082010BD40
:10B3E000646104F1140107480EF0B4FF05481038F9
:10B3F000017819B9406808B900F0CEF8002010BDF6
:10B4000060850100EC30002010B508480EF07AFF8E
:10B410000648002110380122416041700270C1705D
:10B420008170034880F8001410BD0000EC3000204B
:10B430000AE000E010B512F027F910B9784609F0DB
:10B44000D5F80848406810B1784609F0CFF80A20CE
:10B45000FCF717FA0120FCF714FABDE81040FDF7DD
:10B46000FDBD0000DC30002010B512F00DF910B960
:10B47000784609F0BBF80C48406810B1784609F0EE
:10B48000B5F810F00BFC11F0DDFE0FF0CBF807491A
:10B49000012008614FF0E0218002C1F88001BFF374
:10B4A0004F8FBFF36F8F10BDDC30002000A0004035
:10B4B00003480078002801D00BF0C4BA70470000A0
:10B4C000DC30002010B512F0DFF810B9784609F032
:10B4D0008DF8134C606898B1406810B9784609F04F
:10B4E00085F80120E0706168086949688847002094
:10B4F000E070A078002812D0BDE8104003F0E8B852
:10B50000607810B9784609F071F810F079FB10F006
:10B5100017FB002803D1BDE8104012F04DB910BD53
:10B52000DC300020064810B50178002421B100214C
:10B53000017000F031F800E00824204610BD000042
:10B54000DC30002001460A4810B5027800240AB118
:10B5500008240AE0C1600121017012F0F3F810B173
:10B5600012F038F901E00BF06DFA204610BD000032
:10B57000DC30002010B512F087F810B9784609F0D9
:10B5800035F804484068002803D1BDE81040FDF7B5
:10B5900065BD10BDDC3000200A4810B500780028D9
:10B5A0000ED110F0CDFA18B9FDF724FD002807D010
:10B5B00012F0D0F8002803D0BDE8104012F00AB90C
:10B5C00010BD0000DC30002000B508488BB00178C9
:10B5D000032909D1042101702C2205496846FAF794
:10B5E000A7FE684603F096F90BB000BDA02F00201F
:10B5F0006CFC030010B54A0901F01F0450F822301A
:10B600000121A1408B4340F8223010BD10B54A09FA
:10B6100001F01F0450F822300121A1408B4340F873
:10B62000223010BD1F3149098900FAF79ABE1F3137
:10B6300049098900FAF795BE4A0950F8220001F03D
:10B640001F0201219140084000D0012070474A09A3
:10B6500050F8220001F01F0201219140084000D063
:10B6600001207047F0B500235A1E01F11F0502EBBF
:10B670005517012410E016469F4205D15E4201EBAA
:10B68000461604FA06F6761E50F823C01CEA060F8A
:10B6900001D00020F0BD5B1CB3EB551FEBD30120A4
:10B6A000F0BD000030B504468A420FD2500902F0C6
:10B6B0001F05012254F82030AA40521E934301F185
:10B6C0001F0207E0401CB0EB521F01D3084630BDFB
:10B6D00054F82030002BF5D059420B4004494B431D
:10B6E000044901EBD361097801EB401030BD000043
:10B6F00031B57C0760FD030030B504468A420FD2A5
:10B70000500902F01F05012254F82030AA40521EB1
:10B71000934301F11F0207E0401CB0EB521F01D31D
:10B72000084630BD54F82030002BF5D059420B406C
:10B7300004494B43044901EBD361097801EB401004
:10B7400030BD000031B57C0754FE030030B504461F
:10B750008A420FD2500902F01F05012254F820300E
:10B76000AA40521E934301F11F0207E0401CB0EBB8
:10B77000521F01D3084630BD54F82030002BF5D0BD
:10B7800059420B4004494B43044901EBD36109780A
:10B7900001EB401030BD000031B57C072C030400E4
:10B7A00030B504468A420FD2500902F01F0501222B
:10B7B00054F82030AA40521E934301F11F0207E0C3
:10B7C000401CB0EB521F01D3084630BD54F8203066
:10B7D000002BF5D059420B4004494B43044901EB7F
:10B7E000D361097801EB401030BD000031B57C0712
:10B7F0001008040010B54A0901F01F0450F8223067
:10B800000121A1400B4340F8223010BD10B54A0978
:10B8100001F01F0450F822300121A1400B4340F8F1
:10B82000223010BD2DE9FC470025178806461580FB
:10B8300090F82D001446894630B13A4621464846D4
:10B8400000F0E6F8051E09D1B0784FF00C0A18B3E5
:10B850002088C846001DB84202D95046BDE8FC8782
:10B86000684679DF0028F9D12088032108F8001004
:10B8700020881921401C80B2208008F80010208800
:10B88000401C80B2208000EB0801BDF8000013F0DE
:10B89000C2F9218808442080F0780222C8B12188AA
:10B8A00096F9033001F1030C4846BC45D5D8425403
:10B8B00021884FF0010C491C89B2218000F801C099
:10B8C0002188491C89B2218009F801302088401C58
:10B8D00020807068B8B1218890F9003001F1030C24
:10B8E0004846BC45B9D8425421880A22491C89B22D
:10B8F000218042542188491C89B2218009F80130F5
:10B900002088401C2080308950B1CDE900474B464B
:10B910000622022106F1080013F0BCFB051E9DD192
:10B92000308A50B1CDE900474B460722032106F18A
:10B93000100013F0AFFB051E90D1308B50B1CDE954
:10B9400000474B461522142106F1180013F0A2FB04
:10B95000051E83D1306A30B13B462246494601F08C
:10B9600017F8051EDBD1706A30B13B4622464946C6
:10B9700008F05EFC051ED2D196F82C0038B13B468B
:10B9800022464946304611F005F8051EC7D13078E9
:10B9900038B13B462246494630460AF087FB051E31
:10B9A000BDD128465AE7000070B5040012D0014608
:10B9B0001C221448FAF7BCFC1248134D056020689D
:10B9C00050B17ADF002806D12068016829604068FC
:10B9D000686005E00E2070BD0B487BDF0028FAD1BF
:10B9E00008484FF6FF711438084A20F8041B05492F
:10B9F000343901600021FEF73BFD0028EBD0032025
:10BA000070BD00007C5600202431002081EC030032
:10BA10007CB5054608880C460930904201D90C20B7
:10BA20007CBD68466DDF0028FAD121880820685463
:10BA300020881B21401C80B2208029542088401C73
:10BA400080B220802844DDF801100160BDF80510A7
:10BA500081802088801D80B220809DF800104908D8
:10BA600000D0012129542088401C208000207CBD6A
:10BA70002DE9F04701883B4E40F2F3194FF6FF7570
:10BA800010291BD011293ED0122954D0502946D15B
:10BA9000C188F289841D914241D1618902293ED138
:10BAA0008688304607F03AFF050038D004F10C00D4
:10BAB00000F05CF8A8B3294630464EE0C17B878889
:10BAC000044601292BD1A846284607F027FF050088
:10BAD00017D02F8000202872234843464A46016829
